:1000000000080020DD0300000000000000000000E8
:1000100000000000000000000000000000000000E0
:1000200000000000000000000000000000000000D0
:10003000000000000000000000000000BD01000002
:10004000C101000000000000ED010000B902000045
:10005000000000000000000000000000002934D073
:100060000123002210B488422CD301242407A1428A
:1000700004D2814202D209011B01F8E7E400A14247
:1000800004D2814202D249005B00F8E7884201D3E2
:10009000401A1A434C08A04202D3001B5C082243BA
:1000A0008C08A04202D3001B9C082243CC08A0422B
:1000B00002D3001BDC082243002803D01B0901D017
:1000C0000909E3E7101C10BC7047002801D000208C
:1000D000C04307B4024802A14018029003BDC046C5
:1000E000D90000000029F0D003B5FFF7B9FF0EBC1E
:1000F0004243891A1847C046002941D010B4041C55
:100100004C40A44601230022002900D54942002882
:1001100000D5404288422CD301242407A14204D2B6
:10012000814202D209011B01F8E7E400A14204D296
:10013000814202D249005B00F8E7884201D3401AAD
:100140001A434C08A04202D3001B5C0822438C08CF
:10015000A04202D3001B9C082243CC08A04202D339
:10016000001BDC082243002803D01B0901D0090929
:10017000E3E7101C6446002C00D5404210BC7047D9
:10018000002806D003DB0020C043400801E08020A7
:10019000000607B4024802A14018029003BDC04601
:1001A000190000000029EBD003B5FFF7A7FF0EBC34
:1001B0004243891A1847C0467047C046FEE7000010
:1001C00008B5074B01221A70064B00221A70064B25
:1001D0001B68187D904202D1032102F0F3F908BD9B
:1001E000700400203F0000400000002038B5A0252A
:1001F000ED052B691B011B0F082B0CD12D4900238A
:100200000B604B60AA8A52BA081C8A600C3010310D
:1002100002F012FF40E0022B0CD1264BD9680029D6
:100220003AD05A681869824236DA501C58602B7DE1
:100230008B5431E0042B2AD11E4CE368002B24D0D0
:10024000226821698A4209DA9B5CAB61A3689A182B
:1002500090B202F02FFF2368013314E0A368201C42
:10026000211CD2180C30103102F0E6FEE368002B9E
:100270000BD0A16822688818A0601B7880B2AB619F
:1002800002F018FF0123236006E0AB6104E0012BBC
:1002900002D1084B00225A60C046A023DB05DA6871
:1002A00001210A43DA60C0468022D96852000A431D
:1002B000DA6038BDA4020020F8B501F023FA4369E2
:1002C000002B01D0013B43610123C3564269002B3F
:1002D0001AD0012B2ED13049304E0C68C16903274A
:1002E00065182D7B2479AD00AD192D4E2D6836682B
:1002F0006136367876B27E43B618B60071180919A1
:10030000083189000D5015E0234CC1692468234D44
:10031000641864790326A4006419214D24682D68AB
:1003200060352D786DB27543AD18AD006918083190
:1003300089000C50002A05D080230022DB051A70AA
:10034000012225E0C169826901394261C161002B46
:1003500006D0012B10D1104B1B685B18187B03E0F3
:100360000D4B1B685B1858790E4B1F221C68104000
:100370009443221C02431A608023DB0501220029DA
:1003800002DB0021197003E00749CA701A700022CD
:100390005A701A70F8BDC046900400202001004039
:1003A00000000020D400004070040020064AA02372
:1003B000DB051A60054A064B1A60064A064B1A60AE
:1003C000BFF36F8F7047C04601030049010102006F
:1003D00004000050010F010108000050F8B580230F
:1003E000DB055A680F2313404A4A1F21116001336D
:1003F000102B0CD08022D20554680F21181C8C437E
:100400000840211C014301335160DBB2F0E70023B7
:10041000414A42499A188A4204D24149C958043390
:100420001160F5E73F4B404A191D043B934203D24C
:1004300000221A600B1CF6E7EFF308823B4B191DF4
:10044000043B9A4203D93A4818600B1CF7E7FFF7C0
:10045000ADFF38493848053901F092F9374C384D2D
:1004600001235B4223716371A371E3712B1C3C3345
:100470001A782B1C3D331B7880B21B021343984221
:100480003FD102F0CBFD2F4B2F4918882F4A8842CD
:100490000BD06E7D18882B7D36023343984204D1F1
:1004A00013889BB223711B0A637113888B421BD084
:1004B000EE7DA87D138836023043834214D100209C
:1004C0000423013BDBB2FF2B07D0214EEF18F65C73
:1004D0003F79B742F5D10120F3E7002804D0138813
:1004E0009BB2A3711B0AE371637922791B02134348
:1004F0008B4206D0E279A37912021A43124B9A4238
:1005000004D1144B04221A6062B6FEE700F0DCF856
:10051000F7E7C0465000004000000020A402002081
:1005200038340000A802002069040020AC04002038
:10053000CDCDCDCD00400000000000007A040020A9
:10054000C03F0000D03D0000FFFF0000BE3F0000A4
:10055000D23D000000E100E0014B18607047C0464A
:1005600084040020014B18687047C04684040020B2
:10057000014B18607047C04688040020014B186882
:100580007047C0460000002038B5094C256801F0CE
:1005900005FFE861256801F007FF064A0649126871
:1005A00009682862127C097823684A431A6138BDB9
:1005B000000000208404002088040020F0B585B0ED
:1005C00000AF01F08DF82D4B68461B6800215D6877
:1005D0009B68ED18AE00331C0E33DB08DB00C01A3D
:1005E0008546C01A6C4685466B46321C201CBB6093
:1005F00002F019FF0020032102F07EF80321012000
:1006000002F07AF81E4A331C1168161C043B1A1DAE
:1006100004D0CA69B868D258C250F7E76B1E9B0075
:10062000FB6002F0CBFB0B2824D10020032102F059
:1006300063F80321012002F05FF83168FB681A1D9E
:100640000CD0B868C0583860C869C2583868821A77
:10065000E058904200DAE250043BF0E709497C237D
:100660005B42CB7001205223221C4D700B7102F0B3
:1006700099FCD6E7BD4605B0F0BDC0469402002007
:10068000000000209800002008B500F063FE021E64
:1006900005D10449A9230B7102F084FCFEE7FFF7A2
:1006A00073FF08BD8003002008B502F057FE01F07B
:1006B0001DF808BD08B502F0A7FE02F053FE01F0D8
:1006C00015F801F009FA08BDF0B593B006AF02F0D5
:1006D00075FBB87602F05EFE02F074FE00F026FEB6
:1006E000FFF7D2FF02F06AFB041CF876052800D160
:1006F0001BE110D800281AD0022800D044E1FFF7EF
:10070000D3FF02F021FB002001F080FCFFF73CFF4B
:1007100002F09AFBE2E00B2800D124E10D2800D181
:100720002BE1092800D02FE102F08EFB07E1984869
:10073000056802F059FB974B28751E686D46B36833
:100740007D607568F0685A197D61356969465D4359
:100750004343AD18EB189B000A33DB08DB00C91AD2
:100760008D468B4806AB3B6103689200191C6031D3
:100770000C704C70396962331C708A18BA60336926
:10078000B268211C5A43B868920002F04CFEF3682C
:10079000B26838695A43AD004519211C9200281CE3
:1007A00002F041FE381C211C14221C3002F03BFEDA
:1007B0007A6939699300CB18FB603B62BB68BD6204
:1007C000F9617B6201F0C6F8714C0525022D14D049
:1007D00004D8002D70D0012D0AD076E0042D4BD026
:1007E00028D3052D71D101F074FBC0B202F010FCCA
:1007F000206800217C3002F0A3F902F07DFC061C89
:1008000002F086FC051C02F089FC23680090614818
:10081000191C00687C314068B21C0190381C1C30E7
:10082000029000200390DB69081C049339692B1C9B
:1008300000F030FC206801217C3002F081F90025B5
:100840002C20C555534E3368DB689D4214DA0023D3
:100850007B6133687A691B699A420BDA03210120B4
:1008600001F04AFF381C1C3000F070FB796901313F
:100870007961EEE70135E5E702F03EFC061C02F087
:1008800047FC051C02F04AFC8446AB1C65460C354F
:10089000216800953F4D081C2D68321CAD687C30E6
:1008A00001953D1C1C35029501250395096A1832F6
:1008B0000491F96800F0EEFB381C391C3A1C1B301F
:1008C0001A311C3200F080F9051C02F077FAFB7E29
:1008D000834200D17AE77D68AD4655E002F0BEFA6A
:1008E000041E062C0BD0062804D8052810D101F0D0
:1008F000E5F80DE0142805D0172803D008E001F032
:10090000EBF805E002F0B2FA011C201C00F028FC14
:1009100002F054FAFB7E8342E0D0FFF7CBFE0020CA
:1009200001F074FBFFF730FE2EE002F08DFA01F0CB
:10093000E3FC02F043FAFB7E8342FAD024E016493E
:100940004323002203200B7102F02CFB0121002025
:1009500001F0D2FE002001F0DBFB02F02FFAFB7E5B
:100960008342ECD010E002F06FFAFFF727FE02F0AE
:1009700025FAFB7E8342F8D006E002F065FA02F029
:100980001DFAFB7E8342FAD0FB7EBB76AAE6C04608
:1009900000000020940200208003002038B5324C73
:1009A0002268157902F0A6FC0379002B02D16BB204
:1009B000013303D123680025DD600FE02368D96887
:1009C0001A69914202DAD9680131D9600421595675
:1009D000012903D0DB68934200DB012522681379EB
:1009E0009D4209D0214900202B1C0E33021C0B71A3
:1009F00002F0D8FA23681D7123681A79002A03D1FE
:100A00001B4A1268127804E0012A03D1184A1268BE
:100A100052781A60186801F08DFE2368051C986DE5
:100A200001F0B4FE281A0125002809DD23681868A2
:100A300001F080FE2368051C986D01F0A7FE2D1AB9
:100A40002368D86D01F0A2FE281A002805DD23686E
:100A5000D86D01F09BFE281A00E0012001F056F845
:100A600001F0C2F938BDC04600000020800300201C
:100A70008804002010B502F0C7FC02F0A7F9041C9E
:100A800002F0BAF90020844202D002F0A7F9012056
:100A900010BD0000F0B5051C0F1C00204249A62324
:100AA00089B0141C021C0B7102F07CFA3F4E404AC4
:100AB00033681268187D012808D1527803211A6022
:100AC00001F080FD281C00F041FA03E012781A6062
:100AD000FFF764FF221C391C281C00F01BFA326847
:100AE0000390137D334C344F012B09D101F010F9E1
:100AF000324801F00BF801F077F901F0E3F922E058
:100B000001F0E0F901F004F90321012001F0F4FD06
:100B1000281C00F01BFA01F0BFFA3B6802205B685A
:100B2000211C63700423E370672323713368DA693F
:100B300002F038FA3368562128685956FFF79AFFB1
:100B4000002800D003903A68184D93685768637086
:100B5000DF19F32323712B6804261A6A211CE6701F
:100B6000022005AC02F01EFA00210C22201C02F02B
:100B70005AFC012323702B680022DB69FFB26770E7
:100B8000A770667102200093211C131C02F0D0F99B
:100B90000B4B1A680B4B9A4202D001F0ADFBFEE7FB
:100BA000039809B0F0BDC04680030020000000207B
:100BB00088040020980000209402002098AB0200D6
:100BC000A8040020CDCDCDCDF0B587B000AF061C78
:100BD0000C1CBA6002F094FB2B4B69461A685368F0
:100BE00092689D009A189200131C0A33DB08DB0000
:100BF000C91A8D467961081C002102F014FC227884
:100C000033789A4203D002F01FF9337823701F4BD8
:100C100000221B689A607B695D19FD6002F0F2F9A1
:100C2000041C01F056F9A04204D0201C01F070F918
:100C3000022425E07969FA68B868FFF72BFF134DA5
:100C400078602968041C097D396102F0CDF83B69A0
:100C5000834205D02C6802F0C7F8207503240FE00A
:100C60002B680B4A9968914202D09A6801329A60C7
:100C70007968002904D102F0A1F833788342CDD0FD
:100C8000201CBD4607B0F0BD9402002000000020EB
:100C9000FFFFFF7FF0B587B0019300250CAB0092FA
:100CA0000C1C5D57061C02F027FA071C02F022FB01
:100CB00002F01AFB3A7C012D01D10737FA7F1B4B5A
:100CC0001B6857331B78002B01D000233370367814
:100CD000002E17D02378934210DC0133DBB223704F
:100CE0000393009B12490493019B343D002003AA07
:100CF00005930D71002602F055F913E000232370CF
:100D000001260FE0009B0A490393019B09200493ED
:100D10004F235B425D4303AA203505960D7102F017
:100D200041F92670301C07B0F0BDC046000000201D
:100D30009F000020F0B591B007930C1C0A92099017
:100D400002F0DAF9059002F0E3F9089002F0E6F912
:100D50006D4B071C1B681D7D002D77D109986B4ECC
:100D6000191CDB6900903068059A40683C3101909D
:100D700008980232029078680390201C00F058FC1A
:100D8000336863495B680B904B707C235B42CB708C
:100D900001206A23221C0B7102F004F933685A689F
:100DA0009B68D318069302F09FFA226881788A42E2
:100DB00008DA63688B4205DA0A2A03DD0A2B01DDB3
:100DC000256065600DAD281C00210C2202F02BFB74
:100DD00006990022CBB26B70AB707C2301265B427C
:100DE0006B712E70291C131C301C009402F0A0F8AB
:100DF000454D059A2B68196C181CDB6B6430069303
:100E00001223D25E94466346069A00F093FA2B684A
:100E1000181C191C1A6CDB6B6430069300230093BA
:100E20006C31069BFFF736FF002867D10B9800282E
:100E30000CD136492B680968BA6849681B6800916B
:100E4000692101910998211C02F00EFA2E4D0A9891
:100E50002B682E4E191C1B6A00903068059A80681A
:100E6000243101900898183202300290786803907B
:100E7000079800F0DDFB336825499B68079A4B70A3
:100E80007C235B42CB700590FA2301200B7102F0AA
:100E900089F802F031F92B688446996A181C5B6A5C
:100EA000624606932823D25E703094466346069AC3
:100EB00000F040FA2B68181C191C9A6A5B6A7030A3
:100EC0000693012300937831069BFFF7E3FE002889
:100ED00016D1059800280BD131682B6889687A698A
:100EE0001B6800916A2101910A98079902F0BCF9E8
:100EF000201C079900F058FA002002E0301C00E0A6
:100F0000032011B0F0BDC046000000209402002074
:100F10009800002070B50E1C151C041C02F0EAF9A4
:100F2000094B002118683022243002F07CFA05CCED
:100F3000311C2B1CFFF7FEFE041E03D100F06AFAE1
:100F400000F0DEFA201C70BD000000204E4BF0B512
:100F50001D684E49AB680E6889B0041C9A00043ABB
:100F6000217C013B09D32F69306A5F43BC4680581E
:100F70006144A7688900C851F1E70131434F2174EA
:100F8000AE683F68039607972F69039E237C0597F9
:100F9000013E039665D3059EB3421ADB039F331CC3
:100FA0007B433B483218D2189200331C0020013B8F
:100FB00004D3A668B158043A4018F8E7EB68039EDA
:100FC000677C73430599FF18FFF796F8E668BF0042
:100FD000B8510598039F00237843217C01939942DF
:100FE0000BD02B4A0E18B618F61AA768B600019A4D
:100FF000F659013392190192F1E7EE68244B00276C
:10100000F018039B04977343C0188000331C627C64
:101010009446013B0AD3634506D0E2681758049A08
:10102000BC46171C674404970438F0E7079B059AF1
:101030001F6A039B03987343511A6344E26880005C
:101040009B0002909858019B484305991818FFF798
:1010500005F804990818311CFFF700F8029EF051BA
:1010600092E7BB4201DB00232374237C002B02D1D7
:10107000637C01336374627CEB689A4201DB00237A
:10108000637409B0F0BDC046940200200000002047
:10109000FFFFFF3FF0B589B00793002411AB1C5749
:1010A0000D1C05920F9F069002F026F80021049077
:1010B000BA00281C02F0B7F9264B201C1E68032139
:1010C000002C03D101F01EFBB06502E001F01AFB19
:1010D000F065049A1678002E0FD0201C032101F031
:1010E0000BFB012C02D11098FFF730FF281C12993E
:1010F0003A1C02F081F8013EEDE7012C01D1109B72
:101100001E74201C00F04AFF061C201C00F06EFF1D
:1011100002940190059906980E9A3B1C009602F0E5
:1011200003F8049A281C137805990093079A3B1C2E
:1011300002F070F8084C0E23A37104206923211CCF
:101140002A1C23716770E07001F02CFF0023A3714B
:1011500009B0F0BD000000209800002070477047E3
:101160006F4BF0B51B688FB05A689B6800AFD318FF
:101170009C00261C0A36F608F6006A46921B954625
:10118000F8617A62101C0D1C221C00213B6202F0E7
:101190004AF96B469B1B9D46181CFF21221C7B6154
:1011A00002F041F93B6A6A460733DB08DB00D21ADA
:1011B00095463A61684600213A6A02F034F96B4676
:1011C0009B1B221C9D46181C0021BB6102F02BF9C1
:1011D000FA69142A02D0172A08D056E0B86900210B
:1011E00001F0AEFCB869012101F0AAFC002D02D18A
:1011F0004C4B1B68DD7C3B6A2E1C013B9B00FB605B
:10120000002E42D00020092101F076FA01200921A8
:1012100001F072FA3D6AFC68013D6B1C33D000F0AE
:101220006BFA3F4B1B685B689D4203DA031C2C334F
:101230002B3002E0031C4833473019780378C91A71
:10124000394BC9B21B68DB691859FEF707FF7B6A87
:101250001A59031E934200D2131C7A6A13517A69F9
:101260001359984200D9181C7A6A7B69125918518F
:10127000101A7F23FD2801D84008C3B23A69043C04
:101280005355013DC9E7013EBAE7FA69142A08D06F
:10129000172A27D1FFF763FF3A6901247A62251CD8
:1012A00022E03C6A013C1BD3BB69A500EB58062138
:1012B000D803800D0A235843FEF71EFF7A6A061CE6
:1012C0005051BA69AB5C5B065B0EEBD064205843AF
:1012D0000621FEF711FF7B6AC01186195E51E1E716
:1012E000FFF73CFF00240425381C00210C222C3081
:1012F00002F099F801232C22D3553A6AE401D3B2C3
:101300002D22D355381C2E22D355254331232C3082
:10131000796ADD5501F0B2FDBD460FB0F0BDC046A3
:1013200094020020840400200000002008B501F091
:10133000ABFC08BD10B5002A02DD8A18D40F06E008
:101340000024A24203D10124994200DB141C047042
:1013500010BD0000114B642210B51A8000F0F2FDA0
:1013600000F076FB00F010FB00F040FA00F068FAA5
:1013700000F0E6FA01F030FA041C00F00FFA084B16
:101380001B681A78074B1B68002A01D0032200E073
:1013900002221A6162B6201C10BDC046BC0000408B
:1013A0009004002090000020F8B5184B00241F681E
:1013B000061CBC600D1CFFF7E1F8037D144A0437DE
:1013C000A34210D113685C68611C8900791804314C
:1013D000231C013B07D398003058002800DC002074
:1013E00008600439F5E713689B681A190132920006
:1013F000BF183A1D013B07D399006958002900DC4A
:1014000000211160043AF5E7F8BDC0469C020020B7
:1014100094020020F0B5374B87B01C6801F056FDF0
:10142000354D0023A3602B685F689E68FFF7A6F820
:101430000590037D012B01D0B91901E02B68996853
:101440002E4B4A1C2E689200251D1868AA186B188E
:101450002B33043201394AD37568A94208DA059F53
:101460003D7D002D02D10578049503E0012D01D1C9
:10147000C77804971568002D04D0049FBD4201DA97
:101480000025156015680195002D13D01D787F2D5E
:1014900001D001351D700027DF574579AF4203DCCD
:1014A00001256D42156002E0A5680135A5600025A3
:1014B0001D7119E00027DF57BC464779BC4511DD97
:1014C0001569AC46002D0FD01F790137FFB21F718F
:1014D00085797FB2AF4205DC65461560A5680135A8
:1014E000A56001E0019F1F70013B043AB2E707B01D
:1014F000F0BDC0469C02002094020020A004002001
:10150000F0B5474B87B01E6801F0E0FC01F0D8FC55
:101510000390FFF733F8434B02901A78424B312A7D
:101520000CD11A6851689368CB185C1CA4000F2278
:101530005D1E341913400834019322E01B685B6878
:10154000F3E7012B2DD005AB00211980997095424E
:101550002DDA02990A7D012A29D005AB1A780F21CC
:101560008A4301990A431A70226900998A4223DD4D
:10157000BA422EDA019A0F23013A1A40013D043C87
:1015800001926B1C37D0284B1B685A68954208DAC9
:1015900002990B7D002BD4D1244B1B681F785B78FC
:1015A00003E0224B1B68DF781B790093CBE71A78A6
:1015B00040210A431A70D0E72168B942D8DB187875
:1015C0008022524202431A700A1EFF2A09DDFF22BE
:1015D00007E0236800998B42CCDC039905AB042912
:1015E00001D15A700EE0039909290BD192B25A70B9
:1015F000120A9A7006E0B3683371F36001F084FC5C
:1016000007B0F0BD05A801F06BFC6B46197D281CE6
:10161000C909012200F006FD21682161AAE7C04640
:101620009C0200207200010094020020A00400200F
:10163000F7B5071C26480093099C08610D69013C19
:1016400009943DD30998009B147886009859002C82
:1016500004D00A9B099C1B5758438009089CA45935
:10166000A40B201A002810DD0A24135F984222DB05
:10167000C31A9C460B689C448B6864469C460123B5
:101680009C440C6064468C6015E0002813D00C2448
:10169000135F98420BDCC31A9C464B689C44CB6892
:1016A00064469C4601239C444C606446CC604B6974
:1016B000984200DA4861B851A842BDDA281CBBE75D
:1016C0000620135EE817DA0F9D425041C0B2FEBDFE
:1016D0000080FFFF014B18607047C0469004002057
:1016E000014B18687047C04690040020014B1860F9
:1016F0007047C0468C040020014B18687047C046F4
:101700008C040020014B18687047C04690000020F0
:10171000F0B5134B134A1F781578134AFFB21678A9
:10172000124AEDB21178124AF6B21478114AC9B2CF
:1017300012781B78E4B2D2B20020AA2B0ED10E4B45
:10174000ED19AD191B78EDB29D4207D10B4B601816
:101750001B788018C0B2C01A43425841C0B2F0BDD5
:10176000500001005100010052000100580001002A
:10177000590001005A000100530001005B00010004
:1017800080235B040022188059809A8019890120E7
:1017900001431981C046988980B27047104BC0221E
:1017A000920098580F49014099509958FF20814361
:1017B000402001439950985880210002000AC90531
:1017C00001439950042201211A601960082119600F
:1017D000FC3300215960044B19690A431A617047B0
:1017E00000E100E0FFFF00FF00ED00E013B5002284
:1017F00000920192104A6846126801AB148E2E3294
:10180000117842787F20824322200243684642704A
:1018100000988022D205506218882405000B240D00
:101820000003204318800198044B090303400B4335
:10183000A832136013BDC0468C040020FF0FF0FFD8
:101840003C4B70B51E688024331CE4052A3319789C
:10185000231CC03318687F2290431140021C0425CA
:101860000A43201C311C1A6018312A1CD83001F0A0
:10187000D1FD201C311C2A1C1C31DC3001F0CAFDBA
:10188000201C311C2A1C2031E03001F0C3FD201C3B
:10189000311C2A1C2431E43001F0BCFD201C311C19
:1018A0002A1C1031143001F0B5FD236B082293433C
:1018B0002363236B02222B432363236B7619934309
:1018C0002363236B012213432363F27FA16C013A4C
:1018D000194BD2B292030B401343A364A26C802332
:1018E000DB031343A364231CD4331968F022D20210
:1018F0000A431A601968FC2252040A431A601A68E3
:1019000060218A4320210A431A60A26C0B4B1340CA
:10191000802292041343A364B43423680F229343B8
:101920001D4325602368F022934340221343236024
:1019300070BDC0468C040020FF3FC0FFFFFFFFC00A
:101940008023DB0500221A659A67012252425A66FB
:101950007047000008B503480021102201F063FD24
:1019600008BDC04620010040054B802219681203C3
:101970000A431A601968034A0A401A607047C04651
:10198000B4000040FFFFF7FF70B5264E0422346814
:101990002548211D01F03EFD211C08310422234869
:1019A00001F038FD211C0C310422214801F032FDE8
:1019B000211C103104221F4801F02CFD211C802520
:1019C000143104221C48ED0501F024FDFFF7A0FEB0
:1019D000002823D033681B781B071B0F0F2B0AD15D
:1019E000164B1A780F2A06D81A786968144B5205D4
:1019F0000B4013436B60134B1A689205920F012A38
:101A00000CD1114A11780F2908D811780F221140F2
:101A100018680E4A490302400A431A60FFF7A4FF00
:101A200070BDC0468C040020080000400C0000403F
:101A300010000040140000401C0000405100010054
:101A4000FFFF1FE0B400004058000100FF1FFEFF31
:101A500008B5144B144A19680A401A6019688022A4
:101A6000D2020A431A601968104A0A4080214902CA
:101A70000A431A601968802252010A431A601968E1
:101A80000B4A0A401A6019680A4A0A408021490034
:101A90000A431A601968084A0A401A60FFF764FF8F
:101AA00008BDC046B4000040FFFFFDFFFF1FFEFF62
:101AB000FFF7FFFFFFFCFFFFFFFBFFFF0549802350
:101AC0000968DB0509695A6E0120884082435A661D
:101AD0007047C04690000020054A80231268DB054D
:101AE00012690120596E9040021C0A435A667047E1
:101AF000900000208023DB055A6E034B01201B68F9
:101B00001B69DA4090437047900000208023DB057A
:101B1000020280B2998F120E98873E3319781A709C
:101B20007047000072B6054B1B5C002B03D1C0460A
:101B300062B630BFF6E762B67047C0467004002058
:101B400072B6044B1B5C002B02D1C04662B6F7E7AD
:101B500062B6704770040020F0B587B003AF7960BB
:101B6000191CBA609C46039001C101229300FE58E3
:101B70006446002023689E420DD80D1C0192019BF3
:101B8000043D834205DD2B686B60019B013B0193A3
:101B9000F5E7266004E001300E6004349042E9DB92
:101BA00001320431032AE1D107B0F0BD70B5114A0A
:101BB000114914680122A256002A07D0012A0BD12C
:101BC0000E480E680068737A493004E008680379AB
:101BD0000A4800682D3000780D68013B09D3297947
:101BE0005143C91889006118B0310E68C6400E60B3
:101BF000F3E770BD90000020900400208C040020CA
:101C0000F0B58023DB058DB001225A7000AF0320B0
:101C1000FFF788FF3C4B1B685B785BB2002B05D05D
:101C2000012B06D1394B1B685E7A02E0374B1B68EB
:101C30001E7976B20C2373430A33DB08DB00684657
:101C4000C01AB300854698086A46C100BA615B4273
:101C500052187861FB603961FA610324013C2DD38D
:101C6000351C013D25D3284B284A1B6812680121E9
:101C700059561279A01D4A43A100521989180831FA
:101C80008900C95880003960E11C844689008918A0
:101C900062440831083289009200C958D2583B1C6E
:101CA00024333868FFF758FFB96AFA69AB00D1509E
:101CB000D7E7FB69F8681B18FB61CFE7013EB969FC
:101CC0007A69B4000C199500711C19D03B69206821
:101CD000E35861591A1C7B603B1C2433FFF73CFF1F
:101CE000094B0A4A1B681268012112795956B86AD1
:101CF0004A43B2182C329200D050013E043CE3E734
:101D0000BD460DB0F0BDC0469000002090040020FC
:101D100008B5FFF775FFFFF749FF0C4B1B685B78B1
:101D20005BB2002B05D0012B0FD1094B1B6861332F
:101D300002E0074B1B6860331A78013AD1B21006F3
:101D400001D4197001E002221A7008BD9000002031
:101D50000000002010B58023DB0599681A4A0A406C
:101D60009A605968194A0A405A605968184A0A40E4
:101D70005A60184A1268127D012A1ED15A680F2132
:101D8000154C8A435A60226880231B011343236049
:101D9000FFF7EAFD226880239B0213432360FFF7CD
:101DA000E3FD22680D4B13402360FFF7DDFD226841
:101DB0000B4B13402360FFF7D7FD8023DB059968A9
:101DC000084A0A409A6010BDFFFF7FFFFFE1FFFF56
:101DD000FF1FFEFF00000020B4000040FFFFFBFFDC
:101DE000FFEFFFFFFFFFFEFF08B5044B00221A7054
:101DF000FFF7B0FF024B01221A7008BD70040020EB
:101E00003F00004070B58025ED05AA6880235B0285
:101E10001343AB60244B254E1B681B7D012B23D144
:101E2000234C802322685B0113432360FFF79CFD52
:101E300022688023DB0213432360FFF795FD2268AD
:101E40001C4B13402360FFF78FFD22681A4B134091
:101E50002360FFF789FD336869681A780F23994377
:101E60001A400B1C13436B6032680123907854783E
:101E700018408023DB056409C00020430F495C68DB
:101E8000400321400143596051785868C9060C4A03
:101E9000090F490202400A435A60996880221204DD
:101EA0000A439A6070BDC046000000208C040020E8
:101EB000B4000040FFFFFDFFFFF7FFFFFF1FFEFF25
:101EC000FFE1FFFF08B50020FFF72CFEFFF79AFFA8
:101ED00008BD8023DB055868400DC0B2704730B59F
:101EE0008023DB055A680F23134083420ED001DAAA
:101EF000013300E0013B8022D20555680F211C1CF4
:101F00008D430C40291C21435160EEE730BD000099
:101F100030B58023DB055B685B0DDBB283420DD0FF
:101F200001DA013300E0013B8022D2055568044903
:101F3000DCB26405294021435160EFE730BDC04663
:101F4000FFFF1FE038B5114C80232568DB051048E2
:101F5000291C04225B6801F05DFA28780007000F55
:101F60000F2800DD0F200B4B1B68D860C0B2FFF7B5
:101F7000B6FF23685888C004000EFFF7C9FF80230E
:101F8000DB055968044A0A405A6038BD8C040020B9
:101F90000400004090000020FFFEFFFF002806D153
:101FA000094B1B681A1C2C3210782B3307E00128D0
:101FB00009D1054B1B681A1C4832107847331B782F
:101FC000C01A0130FFE770478C040020002803D1BD
:101FD000054B1B682E3304E0012804D1024B1B681B
:101FE0004A331878FFE770478C040020002803D19B
:101FF000054B1B682D3304E0012804D1024B1B68FC
:1020000049331878FFE770478C04002008B5FFF7C4
:1020100099FFFFF7B9FCFFF7E9FBFFF711FC00F0B0
:10202000DBFB08BDF0B5164B01280BD1002A09D007
:1020300008401C68C2051348204010431860124B2A
:1020400019701CE0114A01251268114C56680D40A8
:10205000104AB0420DD11F680A48EE05384030439F
:10206000186018682D0604402C431C60064B19703C
:1020700004E018682D0604402C431C601170F0BD6C
:10208000B4000040FFFF7FFFB9020020940200204F
:10209000FFFFFFFEB802002038B5184B01251B7862
:1020A000002B02D100F0B0FE0540154CEB05154A9F
:1020B000256815401D43144B25601B780125002B16
:1020C00003D100F0A1FEE84005402B060F4A256829
:1020D00015401D43256000F09FFE031C20680F255E
:1020E0002B40A8431843206000F0A2FE05402801C1
:1020F0002568F0239D430543256038BDB9020020C3
:10210000B4000040FFFF7FFFB8020020FFFFFFFE8A
:10211000F0B58023DB05996C802212060A439A648D
:102120009A6C85B01A4300AF041C9A6465D16D4661
:10213000384B3D601A687F23161C1E40F31DDB08D8
:10214000DB00E81A85466D467D6075002B1C083360
:10215000DB08DB00C01A8546B860211C321C786899
:10216000FB6001F060F9211C2A1CB86801F05BF9E2
:10217000FB686A46D21A95466946F9602A1C684689
:10218000211C01F050F9BA68B30052199446043B7F
:10219000013C181D11D0204D5A1911687D68090B9A
:1021A000A8190155126865461205120D60002A52E1
:1021B000C9B2FD6849004A53E9E7184C0123E370AE
:1021C0000320B323211C7A6802252371667000F076
:1021D000E9FE00230320211CBA68E57023716670B4
:1021E00000F0E0FED6230320211CFA68E57066703B
:1021F000237100F0D7FE3D68AD468023DB059A6C65
:10220000BD46520052089A64996C054A0A409A6485
:1022100005B0F0BDC0000040000002409800002062
:10222000FFFFFFBF0002064B000A01380022586082
:102230009A6005221A60C0461A68D103FCD570471F
:1022400010E000E0044B054900221A6059609A60D2
:1022500005221A607047C04610E000E0FFFFFF0053
:1022600010B58022D20554680F21640C0C4008235D
:10227000012C04D05468640C21405B1ADBB21C1C96
:102280000A4B51681B680F229B681140591A084B72
:1022900089185943074B4443C9180748FDF72CFFD9
:1022A000C1B2201CFDF728FF10BDC04690000020E1
:1022B000F91600004E250000400D030013B50B4C2D
:1022C0000B48A368C01A0193FFF7CAFF094901230D
:1022D0004B7004230190CB7000206F2301AA0B7177
:1022E00000F060FE00230198236016BD10E000E0BE
:1022F000FFFFFF0098000020F7B5234800F046FAE2
:10230000FFF790FF214F0025214E224CB7421FD2EC
:102310008036F31B2026832B00DC9E100123667081
:1023200000203A1C211CB610E370207100F03AFE28
:102330003B1C321C013A08D3002D04D11649186801
:10234000884200D01D1C0433F4E7B600BF19DBE758
:102350000E4904226B1A01270193E270A723211C66
:1023600001AA002067702371843600F01BFE04234D
:10237000751BE3700020A823211C01AA019567703A
:10238000237100F00FFEF7BD801A0600A80400209C
:102390008007002098000020CDCDCDCD014B1868DE
:1023A000B030704790000020044B1B681879044B34
:1023B0002C301B68800018187047C046900400201D
:1023C0009000002010B58024E405A26C80231B0639
:1023D0001343A364A36C80222343A364002152000F
:1023E000054801F020F8A36C5B005B08A364A26CB5
:1023F000024B1340A36410BD00000240FFFFFFBF6B
:10240000F7B5061E58D0012800D0BFE0614B8025EB
:102410001C68ED05231C34331A78A9685E4B024012
:1024200012050B401343211CAB60353104225B487D
:1024300000F0F0FF211C39310422594800F0EAFF76
:10244000211C3D310422574800F0E4FF211C41319A
:102450000422554800F0DEFF231C46331978534B05
:102460007F22186811409043021C0A431A60231C03
:102470004C3319884E4B09051A68090D120B1203CB
:102480000A431A60221C4A3218681178494A090323
:1024900002400A431A60231C4F331A78A96C3F2765
:1024A000454B3A4012060B401343AB64231C4733A1
:1024B0001B784834019351E0364B80251C68ED05AC
:1024C000A279A968D206344BD20F12050B401343F0
:1024D000211CAB6018310422304800F09BFF211C06
:1024E0001C3104222E4800F095FF211C20310422CB
:1024F0002C4800F08FFF211C243104222A4800F0D0
:1025000089FF231C2A331978284B7F221868114031
:102510009043021C0A431A60254B218E1A68090554
:10252000120B090D12030A431A60221C2E3218687E
:102530001178204A090302400A431A60231C3233EF
:102540001A78A96C3F271C4B3A4012060B401343E4
:10255000AB64231C2B331B782C3401932478FFF7B6
:1025600031FFAA6C80239B011343AB64AB6C019ACF
:10257000BB433A401343AB643C40104BAF6CA401E7
:102580001F402743AF64301C00F070F90C4B1B68F0
:102590005E70F7BD8C040020FFFFEFFFD800004005
:1025A000DC000040E0000040E4000040C0000040CB
:1025B000A8000040FF0FF0FFFFFFFFC03FF0FFFF4C
:1025C00090000020454BF7B51B68041C0D1C596199
:1025D0009961002803D1424A1268526804E0012838
:1025E00003D13F4A12689268DA61DA69013ADA6126
:1025F00000F0E4FB00284ED1002C24D1394B19689F
:10260000394B1B6801930B79013B60D3CA1852798F
:10261000364892001218181C019E1E308000301897
:102620004668F7031668BF0DB60AB602374317604F
:10263000077910687F0684462D486646FF0B3040B8
:1026400038431060E0E7012C34D1264B264A196844
:1026500012684B7A0192013B3CD30879019EC01865
:10266000CA181E30127B80003018204F4668920036
:10267000D219F7031668BF0DB60AB60237431760C2
:10268000077910687F06844619486646FF0B30407C
:1026900038431060DFE7092D0CD1002C03D1124B19
:1026A0001B68603304E0012C04D10F4B1B686133BD
:1026B00000221A70201CFFF7A3FE0E4B0022DA70D6
:1026C0008023DB051A705A7001221A70F7BD092D9C
:1026D000F0D1E4E7092DEDD1E7E7C04690000020F6
:1026E000940200209004002000000020000100401F
:1026F000FF03FEFF7004002008B5FFF763FFFFF73C
:1027000007FB08BD38B5051C0C1CFFF79BFD211C01
:10271000281CFFF757FF80230122DB055A70032096
:10272000FFF70EFAFFF76CFAFFF740FAFFF7C6FD66
:1027300038BD000038B58022D2055168051C5068AC
:102740000F23400C194018400824012804D0526877
:10275000520C1340E41AE4B20F23591A074B0848ED
:102760005943084BC918FDF7C7FC074B211C5843B8
:10277000FDF7C2FC291CFDF7BFFC38BDF9160000AF
:10278000400D03004E25000040420F0038B5802266
:10279000D2055168051C50680F23400C19401840A1
:1027A0000824012804D05268520C1340E41AE4B201
:1027B0000F23591A054B06485943064BC918FDF714
:1027C0009BFC211C6843FDF797FC38BDF9160000FF
:1027D000400D03004E25000038B510221F4800218F
:1027E00000F021FE1E4B1A680423013BDBB2FF2BD5
:1027F0002BD01A48990009180C68180724012409DD
:10280000204308600D68072416481C40A404284093
:10281000204308601179994209D9D11849790F48A4
:10282000890009180C688020800220430860517AD2
:102830009942DAD9D118097B0848890009180C682F
:102840008020800220430860CFE78023DB05196BDE
:10285000054A01200A401A6338BDC0460001004005
:1028600090040020FFFFE3FF1FFEFFFF002805D1BB
:102870000A4B1B681A799B18197906E001280CD1BC
:10288000064B1B685A7A9B18D97A054B1F22186889
:1028900011409043021C0A431A60704790040020C4
:1028A000D4000040F7B5154B00901C68013A24D3C2
:1028B000002902D1A3185D7903E0012901D1A318F1
:1028C0001D7B2679009F4E43B6180D48B600BE19F1
:1028D000AB001B183068C003800D01901F68B80A58
:1028E000019F800207431F6037781868054E7F06F6
:1028F000FF0B06403E431E60D8E7F7BD9004002062
:1029000000010040FF03FEFF7FB5041C081C0D1CE6
:10291000FFF744FB061C281CFFF758FB134B8021D4
:102920001B68C9055B8873434343DB112360896CD3
:102930008A0402D54343DB0923602368732159438A
:1029400066225A43C9096160019109490293032330
:10295000D2094B700423A2600392CB70002047235E
:1029600001AA0B7100F01EFB7FBDC0469004002041
:1029700098000020F0B589B00C1C1D1C071C0192AA
:10298000FFF70CFD02902A482B1C01680391013BC4
:102990001DD3039E3279019E7243D218E0070AD5F7
:1029A0009100C8595E00C103890D8C46311C6046F8
:1029B00010316E468853A107E9D59200D25D5900C7
:1029C0005206520E9446664606AA8E52DFE7032C44
:1029D00013D0184916480423CB7043230B710368A6
:1029E0004D701A79019E029872439200821800205D
:1029F00000F0D8FA4226412301E000264023E107F7
:102A000008D50C490222CA70002004AA4D700B712F
:102A100000F0C8FA02231C4207D00649002006AA8B
:102A20004D70CB700E7100F0BDFA09B0F0BDC0461C
:102A30009004002098000020F0B585B00393002694
:102A40000DAB051C0C1C02929E57FFF7A7FC0190D2
:102A50006410384F281C002C53D00C9A311CFFF7FF
:102A600021FF301C0921FFF7ADFDFFF7C9F83868D9
:102A7000002384460C998B423BDA61460A790B9815
:102A80007243D2189200012819D1019881580298F6
:102A9000814205D9A9180A68D003800D001B07E000
:102AA0000398814223D2A9180A68D003800D201808
:102AB000214F8005C00B3A401043086017E0019891
:102AC00081580A98814205D9AA1811784F067F0EBD
:102AD0003F1B07E00A98814209D2AA1811784F06D5
:102AE0007F0EE7197F20074081430F4317700133A2
:102AF000C0E70B9A281CD1B20C9B321CFFF73AFF9F
:102B0000A6E7321C0C9B0321FFF734FF301C092180
:102B1000FFF758FD3B6809491A795B7A201CD318E6
:102B20004B700423CB70019A40230B7100F03AFAEA
:102B300005B0F0BD900400207F00FEFF980000204B
:102B4000F0B589B00023061C05A8059306930793EA
:102B50000C1CFFF7D9FE1A4B002C02D119680D7915
:102B600003E0012C01D11A68557A18682B1C013B2F
:102B70000CD3027913496243D2189200B218176835
:102B800039437F27116039431170F0E7069901231B
:102B900000910193301C059A079B029503940A4902
:102BA000FFF74AFF069A079B0092022201920295C4
:102BB0000394301C7F21059AFFF73EFF09B0F0BD5A
:102BC0009004002080FF0100FF030000014B18600B
:102BD0007047C0469404002070B5FDF7C3FC061C86
:102BE000FEF77EFD264C311C051C1022206800F0EB
:102BF00011FC2B79216800208B75224B61691A1C0E
:102C00000832A26080226360D20592691D7E120A9A
:102C10000A70597EE268090229439D7E2D042943EA
:102C2000DD7E2D0629430D0A117055700D0C090E1D
:102C3000D170597F95701D7F090229439D7F2D0416
:102C40002943DD7F2D0629430D0A117155710D0CA5
:102C5000090ED171191C2D331B782C3109781B02F8
:102C60000B4313721B0A5372A36995710F2298705C
:102C7000DA70E3691A68042218601A715A7170BD1B
:102C8000A8000020D03F000038B5FDF76BFCFEF730
:102C900027FD134CA56A00F05DFB6860FFF79CFF01
:102CA000104B226B1B681B88190A5171137102218A
:102CB000042B03D00021092B00D10321231C3C331A
:102CC000917101225A7000229A7000F03FFB064B6E
:102CD00058608023DB059A69236C1A7038BDC046A2
:102CE000A8000020940400208803002008B5084AAA
:102CF000916C4B780749DBB20B72012B05D0022B8C
:102D000005D1536C01225A7001E0FEF7D7FE08BDD1
:102D1000A800002088030020094B10B51B7A094C3D
:102D2000012B05D0022B05D1626C0023537001E00A
:102D3000FEF7D2FE636B7F211A788A431A7010BDAA
:102D400088030020A8000020F8B5194D0024194E72
:102D5000337A012B07D0002B18D0022B17D1164B3A
:102D60005B6C5C7813E0FEF7C5FE041C002D0BD1F4
:102D7000FEF7B2FE2E23FF33013B002B01D0C046ED
:102D8000FAE7FEF79BFE0A4D013D00E01C1C0A4FCE
:102D9000BA6C5378327A9A4206D0FFF7BDFFBB6C0B
:102DA000044A5B78137201E0002CD0D1F8BDC04614
:102DB000FF2C010088030020A8000020024B9B6C20
:102DC0001878C0B27047C046A8000020024B9B6C28
:102DD0009878C0B27047C046A8000020014B9B6C99
:102DE00098707047A8000020024B9B6CD878C0B246
:102DF0007047C046A8000020024B9B6C587AC0B2B6
:102E00007047C046A8000020024BDB691868C0B2BA
:102E10007047C046A8000020044AD3699269197916
:102E2000D078814201D21879C0B27047A800002042
:102E3000044AD36992695979D078814201D258798C
:102E4000C0B27047A8000020034BA0225B6C1A7030
:102E50001A78A02AFCD07047A8000020024B1B6DF6
:102E60001878C0B27047C046A8000020024B1B6D06
:102E70009878C0B27047C046A80000200E4B30B50D
:102E80001A6DFF2414700D4C586521600578847804
:102E9000996A6C430579407964194006400E604395
:102EA0000860586CA0210170996C1378FF2B02D137
:102EB0000B78022BF9D030BDA80000208803002039
:102EC000014B1B68188870479404002008B5FFF771
:102ED0003BFF024B0022DA6008BDC0468803002099
:102EE00070B5074B074C1A6BE668011C9579986B17
:102EF0002A1C8019751900F08DFAE56070BDC04676
:102F0000A80000208803002008B5074BDB68002BD1
:102F100009D0064ADBB2506B7F21194001703C3268
:102F20009370FFF7E3FE08BD88030020A80000208F
:102F300073B56C46E271194A0734D56D2E78864216
:102F40002AD1FF2028709366131C9C331B682078BD
:102F50009B688000116654661871114B06980C78B6
:102F600018608878936A60430C794979001949069A
:102F7000490E41431960516CA0230B70D16D936CC5
:102F80000A78FF2A02D11A78002AF9D00A78FF2A93
:102F900002D11A780A2AF3D073BDC046A8000020D7
:102FA0008803002070B5144CE36B1D79EDB2012D40
:102FB00021D1854058781E78000230439E7836042F
:102FC0003043DE7836063043284214D0FF20187193
:102FD0000A48216402608C780D78C9786C434906F0
:102FE000490E074A6143906A526C01607721117063
:102FF0001A79FF2AFCD070BD280100208803002028
:10300000A8000020014B5B6C9878704728010020D5
:10301000014B5B6C9870704728010020024BDB6805
:103020009872000AD8727047A8000020014B5B69B3
:1030300098727047A8000020002303600B601B4BB0
:10304000F7B59A4230DC1312194C122B1BD89B0097
:10305000E418E46E002C27D0E368013B5D1C23D00C
:10306000D5B2019565681E1CEF5C019D013BED1B0F
:10307000F4D42768B300DB59002B15D05B1903602B
:10308000A3689B5D0EE0E36A666A013B0CD35D00BA
:10309000755B551BF9D4266A9B00F25852190260E1
:1030A000A26AD3585D1B0D60F7BDC046FFEF00005C
:1030B000A8000020C02208B5D2000B4B904206D1D8
:1030C0005B6C1A78052A0DD005221A700AE05B6B3A
:1030D00084221B7892005B065B0E9B18984201D1FC
:1030E000FFF71AFE08BDC046A8000020014B18607B
:1030F0007047C04698040020014B18687047C046CE
:1031000098040020014B18607047C0469C040020C2
:10311000014B18687047C0469C040020014B18689A
:103120007047C04698020020F0B585B01E1C0CAB5D
:103130001B7800275BB201900D1C141C0097012B1B
:1031400003D12A4B1B685B68009300202849382371
:10315000021C0B71FFF726FF331C0020013B14D328
:10316000009FFA18019F9200BA1811680A27C90334
:10317000890D4F431278BC4652066044520EEDD082
:103180000A214A43D2098018E8E7311CFCF766FFA0
:103190006E88071C002E02D14023636007E0B00157
:1031A000391CFCF75BFF6E2800DD6E2060602B7918
:1031B000642253430A9A0B9953432A780B41002AFD
:1031C00002D0626853439B110A49A36002234B70EB
:1031D0007C235B42CB7000205F2302AA02960397F8
:1031E0000B71FFF7DFFE05B0F0BDC0469402002072
:1031F000800300209800002070B59300C018C91803
:103200000023043B013A04D3C558CE58AC19C4502E
:10321000F7E770BDF7B5051C009101921F1C1C1C3F
:10322000013C0FD3A600A8590899FCF717FF009A94
:103230001378002B03D0019A135758438011800351
:10324000A851EDE7074C0E23A371042044232A1C48
:10325000211C67702371E070FFF7A4FE0023A371A7
:10326000F7BDC04698000020F7B5061C0D1C101CC9
:10327000191CFCF741FF154B089C1B680193A30028
:10328000ED18F718AC460023251C043B013D0CD378
:10329000019A64460A21515EE2588A4200DA0A1C09
:1032A0004243F9588A1AFA50EFE7094D0999089CE8
:1032B00029710E230420291C321CAB71E8706C703C
:1032C000FFF770FE0023AB710120FEBD98040020C3
:1032D0009800002008B5034B18600078FFF7A6FEA1
:1032E00008BDC046A0040020014B18687047C046C6
:1032F000A0040020014B18687047C0469C020020C3
:1033000038B5114C102520682A1C0021103000F01F
:103310008AF820682A1C0021203000F084F82068F8
:1033200004252A1C0021303000F07DF820682A1C7A
:103330000021343000F077F8206800214019342251
:1033400000F071F838BDC0469C020020004870476C
:10335000E23D0000822040007047000000487047B6
:103360000C3E00008A235843014B18187A307047EE
:10337000E23D000008B5FEF7B3F9054B02791B6882
:103380005A60427A9A60827A1A61C27ADA6008BD1B
:103390009402002010B5094C201CFEF79BF9201C5C
:1033A0001430FDF7D9F8201C2830FFF70FFCFFF789
:1033B000E1FF0348FFF7A6FE10BDC046E23D000056
:1033C000E63E00000D4B10B51B688A241B785C4359
:1033D0000B4B7834E4180B4BA01C1860FEF786F9F1
:1033E000201C5230FDF7C4F8201C5430FFF77EFE3D
:1033F000201C8230FFF76EFF10BDC046A0020020E7
:10340000E23D0000A4040020014B1B6818787047BF
:10341000A002002010B50023934203D0CC5CC4541A
:103420000133F9E710BD031C8218934202D01970D2
:103430000133FAE77047FFFF04000020000000009E
:10344000FF0000000000000000000000000000007D
:10345000000000000000000000000000000000006C
:10346000000000000000000000000000000000005C
:10347000000000000000000000000000000000004C
:10348000000000000000000000000000000000003C
:10349000000000000000000000000000000000002C
:1034A000000000000000000000000000000000001C
:1034B000000000000000000000000000000000000C
:1034C0000000000000000000BC0200208703002074
:1034D0000100000000000001030084000000000063
:1034E000CF0300200000000000000000C303002004
:1034F000890200207E02002049020020A80300204B
:1035000088030020700100209803002002000000C2
:10351000BC030020BB030020AF0300200700000015
:10352000A70300207C02002068020020580200202F
:1035300055020020000000004D020020AE030020D4
:10354000000000000000000000000000000000007B
:1035500024020020100200200000000000000000F3
:1035600000000000FC010020E80100200000000035
:1035700000000000D001002000000000B401002085
:103580000000000000000000000000009C0100207E
:103590008801002074010020450200204002002024
:1035A00000000000A2030020002000606C01002049
:1035B000A00300208401002001000000050000009D
:1035C000E8000020A1030020980100200100000075
:1035D0000100000060010020AF010020AC010020CC
:1035E0000300000004050700102000000001002077
:1035F000C9010020C40100200500000008010C01E1
:103600000400102030310000F4000020E30100200D
:10361000E00100200300000008030C00102000005F
:10362000C0000020FA010020F80100200200000084
:1036300004060010EC0000200E0200200C02002006
:103640000200000002140010D80000202002002018
:10365000E40000200300000000101100A80000207A
:103660003A02002034020020060000001708080C6F
:103670000A0B0020304050700100000000002006BE
:103680000100010000002010020E000000FF0000F9
:103690000020030260009000640200200060090125
:1036A0000001000000000000000000000000000019
:1036B00000000000050000483248304D4500000081
:1036C000004D49500000000000030500F4030020F5
:1036D000180400203004002068040020FFFFFFFFD2
:1036E000FFFFFFFFFFFFFFFFFFFFFFFFFFFFFFFFEA
:1036F000FFFFFFFFFFFFFFFFFFFFFFFFFFFFFFFFDA
:10370000FFFFFFFFFFFFFFFFFFFFFFFFFFFFFFFFC9
:10371000FFFFFFFFFFFFFFFFFFFFFFFFFFFFFFFFB9
:103DD0005301483248305041524130303030303059
:103DE00030300000B80B0201020000020A04010298
:103DF0000000200B14034F6E375F4B455900000045
:103E00000000000000000A001E0A04000F42882182
:103E1000300081109903C006600000009107000087
:103E2000000000007C7A05002F86010101012614A4
:103E30000116142800001E0815038000000005006C
:103E4000017C420500E80D0302010177E101427D9A
:103E5000AB00280A1D018000000000050F428821E8
:103E6000300081109903C006600000009107000037
:103E7000000000007C7A05002F8601010101261454
:103E80000116142800001E0815038000000005001C
:103E9000017C420500E80D0302010177E101427D4A
:103EA000AB00280A1D018000000000055A2803000D
:103EB0000100B3053F011E00E2FF1E00E2FF1400F7
:103EC00010FFDC05000001009C071E011E00CEFF54
:103ED0001E00E2FF0A0038FFDC0500003C28C8286D
:103EE00014020100000040314029FFFFFFFFFFFFE7
:103EF000FFFFFFFFFFFFFFFFFFFFFFFFFFFFFFFFD2
:103F0000FFFFFFFFFFFFFFFFFFFFFFFFFFFFFFFFC1
:103F1000FFFFFFFFFFFFFFFFFFFFFFFFFFFFFFFFB1
:103F2000FFFFFFFFFFFFFFFFFFFFFFFFFFFFFFFFA1
:103F3000FFFFFFFFFFFFFFFFFFFFFFFFFFFFFFFF91
:103F4000FFFFFFFFFFFFFFFFFFFFFFFFFFFFFFFF81
:103F5000FFFFFFFFFFFFFFFFFFFFFFFFFFFFFFFF71
:103F6000FFFFFFFFFFFFFFFFFFFFFFFFFFFFFFFF61
:103F7000FFFFFFFFFFFFFFFFFFFFFFFFFFFFFFFF51
:103F8000FFFFFFFFFFFFFFFFFFFFFFFFFFFFFFFF41
:103F9000FFFFFFFFFFFFFFFFFFFFFFFFFFFFFFFF31
:103FA000FFFFFFFFFFFFFFFFFFFFFFFFFFFFFFFF21
:103FB000FFFFFFFFFFFFFFFFFFFFFFFFFFFF5301BB
:103FC0004D425401483248300000000000400000DB
:103FD000EEEE030453015301EEEEEEEE000F0F1070
:103FE000002209012E0200001507162017121500E5
:103FF00000000000000000000000400020640000FD
:00000001FF
